:020000040800F2
:10000000000002208906000885060008F93600086D
:100010008506000885060008850600080000000027
:10002000000000000000000000000000850600083D
:100030008506000800000000850600087D360008DF
:100040008506000885060008850600088506000864
:100050008506000885060008850600088506000854
:10006000850600088506000885060008B1300008EE
:10007000BD300008FD1B0008C9300008D53000085D
:1000800019EC0008DD250008850600088506000833
:100090008506000885060008850600088506000814
:1000A0008506000885060008850600088506000804
:1000B0001D350008293500083535000811260008CF
:1000C000850600081D26000885060008C9DB000813
:1000D000D5DB00084DEA00087DEA0008B1EA000817
:1000E0008506000885060008000000008506000857
:1000F00085060008850600088506000885060008B4
:10010000850600088506000841350008E1DB000887
:10011000E5EA000819EB0008C91E0008850600087A
:10012000B11E0008BD1E000805DC000839DC00080F
:100130004DEC0008850600088506000885060008C5
:1001400000000000000000000000000000000000AF
:100150008506000885060008850600084DEB0008A6
:1001600029260008850600088D360008B1360008EB
:1001700085060008D53600088506000885060008B3
:10018000850600088506000881EB0008B1EB000831
:10019000EDDB0008F9DB000885060008850600088D
:1001A0008506000885060008850600088506000803
:1001B000D12D000885060008850600088506000880
:1001C0008506000885060008D5160008E116000817
:1001D00085060008ED16000885060008850600085B
:1001E00085060008850600088506000885060008C3
:1001F00085060008850600088506000885060008B3
:1002000085060008850600088506000885060008A2
:100210008506000885060008850600088506000892
:100220008506000885060008850600080000000015
:100230008506000885060008000000008506000805
:100240008506000885060008850600088506000862
:100250008506000885060008850600088506000852
:100260008506000885060008850600088506000842
:100270008506000885060008E5EB00080000000080
:1002800085060008850600088506000800000000B5
:080290000000000085060008D3
:1002A00010B5054C237833B9044B13B10448AFF3B0
:1002B00000800123237010BD100600240000000000
:1002C000B02D010808B5034B1BB103490348AFF338
:1002D000008008BD0000000014060024B02D0108B5
:1002E00001F0FF01102A2BDB10F0070F08D010F8E7
:1002F000013B013A8B422DD010F0070F42B3F6D1EB
:10030000F0B441EA012141EA014122F007047FF003
:1003100000070023F0E80256083C85EA010586EA5A
:10032000010685FA47F5A3FA87F586FA47F6A5FA96
:1003300087F68EB9EED1F0BC01F0FF0102F00702A2
:1003400032B110F8013B013A83EA010313B1F8D14D
:100350000020704701387047002D06BF354603382E
:10036000073815F0010F07D1013015F4807F02BF67
:10037000013015F4C03F0130F0BC0138704700BFB8
:1003800053B94AB9002908BF00281CBF4FF0FF31FC
:100390004FF0FF3000F074B9ADF1080C6DE904CEF8
:1003A00000F006F8DDF804E0DDE9022304B0704750
:1003B0002DE9F047089D04468E46002B4DD18A4218
:1003C000944669D9B2FA82F252B101FA02F3C2F14B
:1003D000200120FA01F10CFA02FC41EA030E9440DC
:1003E0004FEA1C48210CBEFBF8F61FFA8CF708FBFD
:1003F00016E341EA034306FB07F199420AD91CEBD5
:10040000030306F1FF3080F01F81994240F21C8106
:10041000023E63445B1AA4B2B3FBF8F008FB10334E
:1004200044EA034400FB07F7A7420AD91CEB040483
:1004300000F1FF3380F00A81A74240F20781644453
:10044000023840EA0640E41B00261DB1D4400023D8
:10045000C5E900433146BDE8F0878B4209D9002D3C
:1004600000F0EF800026C5E9000130463146BDE8C6
:10047000F087B3FA83F6002E4AD18B4202D3824230
:1004800000F2F980841A61EB030301209E46002DDF
:10049000E0D0C5E9004EDDE702B9FFDEB2FA82F234
:1004A000002A40F09280A1EB0C014FEA1C471FFA92
:1004B0008CFE0126200CB1FBF7F307FB131140EA79
:1004C00001410EFB03F0884208D91CEB010103F146
:1004D000FF3802D2884200F2CB804346091AA4B208
:1004E000B1FBF7F007FB101144EA01440EFB00FEDC
:1004F000A64508D91CEB040400F1FF3102D2A64541
:1005000000F2BB800846A4EB0E0440EA03409CE7DF
:10051000C6F12007B34022FA07FC4CEA030C20FA8C
:1005200007F401FA06F31C43F9404FEA1C4900FAAC
:1005300006F3B1FBF9F8200C1FFA8CFE09FB181129
:1005400040EA014108FB0EF0884202FA06F20BD99C
:100550001CEB010108F1FF3A80F08880884240F2EC
:100560008580A8F102086144091AA4B2B1FBF9F030
:1005700009FB101144EA014100FB0EFE8E4508D92B
:100580001CEB010100F1FF346CD28E456AD90238B0
:10059000614440EA0840A0FB0294A1EB0E01A14295
:1005A000C846A64656D353D05DB1B3EB080261EB03
:1005B0000E0101FA07F722FA06F3F1401F43C5E9DD
:1005C000007100263146BDE8F087C2F12003D84013
:1005D0000CFA02FC21FA03F3914001434FEA1C4755
:1005E0001FFA8CFEB3FBF7F007FB10360B0C43EA47
:1005F000064300FB0EF69E4204FA02F408D91CEBF7
:10060000030300F1FF382FD29E422DD902386344F4
:100610009B1B89B2B3FBF7F607FB163341EA034194
:1006200006FB0EF38B4208D91CEB010106F1FF38E3
:1006300016D28B4214D9023E6144C91A46EA0046DA
:1006400038E72E46284605E70646E3E61846F8E66C
:100650004B45A9D2B9EB020864EB0C0E0138A3E7B5
:100660004646EAE7204694E74046D1E7D0467BE796
:10067000023B614432E7304609E76444023842E70E
:10068000704700BFFEE700BF0B480C4A904203D002
:10069000121A0B4910F0E4FF0A480B4A904203D0AB
:1006A000121A002110F0EAFF03F052FA10F0ACFF2A
:1006B00000F016FAFEE700BF000000240C0600243C
:1006C000E42D0108100600248C6A0024704700BF46
:1006D000704700BF704700BF704700BF002968D057
:1006E0002DE9F84F83460F460026324CDFF8DC90A8
:1006F000DFF8DC802DED028B62682F4B2F4D134409
:1007000099F800002244DFF8CCA0A5FB03EC9FED94
:100710002C8A10734FEA1C3298F8001029480AFB03
:100720001233636010F0FCFE20EE080ADBF80020B4
:10073000D4ED006A2448BCEEC00AD4E901310B4470
:1007400003F1010CA5FB03E110EE10EA090B22F8FE
:1007500016E0A5FB0C250AFB11332D0B23440AFBE5
:1007600015C51A7B254407EE902A2B7BB8EEE77A55
:100770009B1A07EE903AF8EEE77AA7EEA67AB5EE66
:10078000407AF1EE10FA14BF0121002110F0C8FEEA
:1007900020EE080ADBF80430BCEEC00A10EE102A86
:1007A00023F816200136B742A6D1BDEC028BBDE876
:1007B000F88F7047000000C0FFED0200F1197605C8
:1007C00000F07F452C06002488060024CD06002476
:1007D0007106002400EE020070B50223A6B00024CA
:1007E0000B208DF8083007268DF8094000F012FA2A
:1007F00003460C203A4DADF80C3000F00BFA0346DE
:100800000D20ADF8103000F005FABDF81020029967
:10081000039BADF8040010A8ADF80020082200F0FA
:1008200079FF03230B208DF818408DF8193000F064
:10083000F1F903460C20ADF81C3000F0EBF903464B
:100840000D20ADF8203000F0E5F9BDF82020069924
:10085000079BADF804000DF15100ADF8002008220F
:1008600000F058FF01230B208DF828308DF8293037
:1008700000F0D0F903460C20ADF82C3000F0CAF996
:1008800003460D20ADF8303000F0C4F9BDF830203B
:100890000B9B0A99ADF804000DF16200ADF8002041
:1008A000082200F037FF8DF838408DF839600DF1DF
:1008B00073000E9900F020FF8DF83C408DF83D60EC
:1008C00021A80F9900F018FF0423052210A928463B
:1008D00000F04EFF284601F02FF926B070BD00BF92
:1008E000FC06002430B5002389B00B4C0120022205
:1008F00003A905930492094DCDE90603204601F0B2
:100900007BFB074A3023204602F16001009501F08D
:10091000F1FB09B030BD00BF04070024DD0600086C
:100920000000003000B5072085B000F073F90346E1
:10093000B2EE040A1648ADF80030009900F0F0FD60
:10094000082000F067F90346B2EE040A1148ADF83A
:100950000430019900F0E4FD092000F05BF9034642
:10096000B2EE040A0C48ADF80830029900F0D8FD48
:100970000A2000F04FF90346B2EE040A0748ADF82A
:100980000C30039905B05DF804EB00F0C9BD00BF61
:100990006006002474060024BC060024D00600244F
:1009A000F8B53B4F3B4E3C4D384600F0D3FD3B4C39
:1009B000304600F0CFFD284600F0CCFD204600F088
:1009C000C9FDB97AB07AA1F1FF01AA7AA37AFF280A
:1009D000B1FA81F1324DA2F1FF02A3F1FF034FEA18
:1009E0005111304EB2FA82F2B3FA83F32970A0F1BA
:1009F000FF014FEA52122C4CB1FA81F14FEA531326
:100A00002A4F4FEA511122703B7031701DD013BB39
:100A1000274A284817780022274902700A7017B918
:100A2000264A12781AB33278254E2648007810B933
:100A300025480078A0B125482549247832700370F4
:100A40002A78244B0C701A70F8BD234800F024FD5E
:100A50003B78002BDCD0214800F01EFD3B78D7E727
:100A60008BB11A48077887F001070F70E4E73278F6
:100A70002AB1134E377887F001070770D5E717467C
:100A80000F4E0770D1E71F4610480F70D4E700BF24
:100A90006006002474060024BC060024D00600244E
:100AA0007006002484060024CC060024E0060024FE
:100AB000050000245C060024B8060024040000247D
:100AC0002107002407000024060000242307002437
:100AD00022070024200700247C2A01088C2A010810
:100AE00038B50021114800F017F9002000F0E2FCB1
:100AF00000250124FFF770FEFFF7F4FEFFF712FF59
:100B0000FFF74EFF0134012002F068FEFFF748FFB7
:100B1000B4F5FA7F0548F5D185F001050024294692
:100B200000F08EF8024800F0B7FCEBE7E406002482
:100B30009C2A01082DE9F04127480025274E002472
:100B40002749324605604561056210F041FD254F99
:100B5000254832462549876004604460C4600761C7
:100B600047618761C46104624462858510F030FD8D
:100B70001F48DFF89C8032461C490460446087604F
:100B8000C460076147618761C4610462446285850E
:100B900010F01EFD32464146164810F019FD32464F
:100BA0004146154810F014FD32464146134810F0F6
:100BB0000FFD32464146124810F00AFD114B4FF628
:100BC0000B7032461049C3E90005C3E902550F48CE
:100BD000BDE8F04110F0FCBCE40600240000002455
:100BE000D1060008000080BF2C060024D5060008AE
:100BF000880600246006002474060024BC06002435
:100C0000D006002424070024D9060008000000C0F4
:100C1000CD0600081F2882B009D8084B03EB40021C
:100C200013F81030507843EA002002B070470123D7
:100C30000C2043EA002002B0704700BFA02A010840
:100C4000253001F077BB00BFF0B5032399B0002732
:100C50000125129306462C4B09A81595CDE90E7374
:100C600040F20453ADF84030284BCDE913570993B7
:100C700001F076FA09A801F04FFB002836D1244B89
:100C800004AF04460090CDF8423010233946049555
:100C90008DF820301F4BCDE91650CDE9065068463F
:100CA000059301F0C7FC0823009A01A909A8ADF833
:100CB00004508DF8064009940295039300F0E4F87F
:100CC00000230EA938463024049302F009FA0322C7
:100CD0004FF07E5309A906F114000B930C93CDE954
:100CE0000942049A00F00CFB19B0F0BD40F6013245
:100CF000074B169704AFADF824200998CDF8423081
:100D0000179500F081F8DBE70402040403030001F7
:100D1000040604030704010B2DE9F04304462DEDFE
:100D2000028B83B0002948D0012140F20112002338
:100D30000091ADF804208DF80630304A0126304B82
:100D4000271D304904F12908626040F20272A36055
:100D500040F60663E16004F125092682A4F8252007
:100D600084F82760A4F8293084F82B6002F0A6FEEE
:100D70006946054648B304F130008DF8066002F07C
:100D8000F9FD072D34D104F114052046FFF75CFF6F
:100D9000284600F0F1FA2846B0EE408A00F0E8FA62
:100DA000D0ED007AF8EE677A88EE277A84ED0E7A35
:100DB00003B0BDEC028BBDE8F08340F2011300915B
:100DC0008DF80610ADF80430B7E704F1300002F0FA
:100DD000D1FD3946204601F077FE484601F0C0F9C2
:100DE000404601F0BDF904F1120000F077F9CAE7BE
:100DF0003946204601F068FEC5E700BF0508050931
:100E000005070506050A060610B584B00346012449
:100E1000ADF8040003A8ADF80C30ADF80E4001F0B9
:100E20009FF9214603A801F085FA204602F0D6FC7E
:100E3000002103A801F07EFA204602F0CFFC2146F3
:100E400003A801F077FA04B010BD00BF10B5C2F3DB
:100E5000002384B00C46017C8DF80D2043EA440247
:100E6000FA2402238DF80C2003AA009401F078FCE8
:100E700018B10124204604B010BD04460A2002F037
:100E8000ADFC204604B010BD034670B543F8042BFA
:100E9000044684B007C983E80700A37983B91A21FF
:100EA0000B461E22FA2523742046ADF80C2002239F
:100EB00003AA009501F054FC28B1012004B070BDD4
:100EC0001B210B46EDE70A2002F088FC4FF4B852D4
:100ED00000950223ADF80C20204603AA217C01F0E6
:100EE0003FFC0028E9D10A2002F078FC41F20272AE
:100EF00000950223ADF80C20204603AA217C01F0C6
:100F00002FFC0028D9D10A2002F068FC04220095A9
:100F10000223ADF80C20204603AA217C01F020FC1E
:100F20000028CAD10A2002F059FC062200950223AB
:100F3000ADF80C20204603AA217C01F011FC00280A
:100F4000BBD10A2002F04AFC41F20822009502239C
:100F5000ADF80C20204603AA217C01F001FC0028FA
:100F6000ABD10A20064602F039FC0095022303AA01
:100F7000217C2046ADF80C6001F0F2FB00289CD1EA
:100F8000304602F02BFC009522790C232046002AE3
:100F90008DF80C3003AA4FF0020314BF62214221E6
:100FA0008DF80D10217C01F0DBFB002885D1304647
:100FB00002F014FC2279D4E902310B43DBB20AB906
:100FC00043F0400362790AB143F020030E22FA2570
:100FD0008DF80D302046009502238DF80C2003AAD1
:100FE000217C01F0BDFB00287FF467AF0A2002F0EE
:100FF000F5FB102200950223ADF80C20204603AA31
:10100000217C01F0ADFB00287FF457AF0A2002F0ED
:10101000E5FB122100950223ADF80C1003AA217CF8
:10102000204601F09DFB00287FF447AF0A2002F024
:10103000D5FB012209212046FFF708FF003818BF21
:1010400001203BE7F0B5102387B0234C0122002597
:101050000126002702A920460195CDE902234FF47D
:101060008052CDE9046709F0BDFF642003F064FB02
:1010700002A94FF480522046CDE9046702261027CA
:10108000CDE9026709F0AEFF0322102302A9204632
:10109000CDE9022300230422CDE904234FF480523A
:1010A00009F0A0FF40F23223042202A90193102389
:1010B0002046CDE90223019A012305924FF4805284
:1010C000049309F08FFF40F60601204609F0AAFFBD
:1010D000284607B0F0BD00BF400700241C4B00228B
:1010E0001C494FF0400C30B5054689B002205960CC
:1010F00007219A601A620124DA620A224FF4006E14
:10110000DC6006922022CDE9000104200821CDE90F
:10111000020103201021CDE9040108206946C3E93A
:1011200004024FF4C072181DC3E906C24FF4805286
:10113000C3E909E209F02CFF38B92846FFF782FF1E
:10114000003818BF012009B030BD204609B030BDBD
:101150003C07002440410052614A0021D0B5136889
:101160008EB00A91002B40F0B9805E4B01214FF602
:1011700083700C2411600221D3F8D42000260327A9
:1011800042F48052C3F8D420D3F8D42002F4805221
:101190000092009AD3F8E02042F01002C3F8E02059
:1011A000D3F8E02002F010020192019AD3F8E02077
:1011B00042F04002C3F8E020D3F8E02002F0400201
:1011C0000292029AD3F8E02042F00802C3F8E0202D
:1011D000D3F8E02002F008020392039AD3F8E0204B
:1011E00042F48072C3F8E020D3F8E02002F4807269
:1011F0000492049AD3F8E02042F08002C3F8E02081
:10120000D3F8E02002F080020592059AD3F8E0209E
:1012100042F02002C3F8E020D3F8E02002F02002E0
:101220000692069AD3F8E02042F00402C3F8E020C8
:10123000D3F8E0300C9403F0040307930323079AD8
:101240000B93CDE9080108A9274805F0A5FA48F253
:101250003712022308A925480C94CDE90823CDE9CB
:101260000A6705F099FA4CF20372022308A9204894
:101270000C94CDE90823CDE90A6705F08DFA40F218
:10128000FF62022308A91B480C94CDE90823CDE98D
:101290000A6705F081FA4FF60C72022308A9164876
:1012A0000C94CDE90823CDE90A6705F075FA4FF6ED
:1012B0003F02022308A911480C94CDE90823CDE987
:1012C0000A6705F069FA2022022308A90A480C944B
:1012D000CDE90A67CDE9082305F05EFA0EB0D0BD6E
:1012E0003807002400440258001002580018025821
:1012F000000C025800200258001C0258001402582A
:1013000030B5184C154685B0046004F1080EEC4663
:101310000FC98EE80F00D4ED047AF5EEC07A8CE8A0
:101320000F00F1EE10FA1ADDB7EE006A94ED057ABF
:1013300027EE277AC6EE276A84ED0D7AC4ED0C6A93
:101340006DB1204640F8185F01F0C2FF06490369FD
:101350000020064A2162A262E36005B030BD012090
:1013600005B030BD74070024C0200030C00000303C
:1013700000680830704700BF0068183001F0AABF4D
:1013800010B4074B4FF07E51302400220320196126
:101390009C60D8605DF8044B5961C3E90622704730
:1013A00074070024704700BFF8B5134F3C687F2CCA
:1013B00007D98023114A42F224411C463B60A2F81F
:1013C0007E100F4D2B68012B0AD90C4E0D4D224675
:1013D0003146284600F074F90028F8D13860F8BD8D
:1013E00022460649074800F06BF90028F7D12B6820
:1013F000386001332B60F8BDB0070024B407002427
:10140000AC0700243408002430B4154C2168F1B135
:101410004B1E144DE81810F801298C4619460A2A6B
:1014200001D00D2A02D14BB1013BF4E70CF10203CC
:101430007F2B10D98023236030BC70470122022308
:1014400023600D200A236854AB5430BC704701223E
:101450000223044DF4E70CF101026146F0E700BFFE
:10146000B0070024B407002410B5094C02460B460F
:10147000084821680844C1F1800110F027FA236868
:1014800018442060FFF7C0FFFFF78EFF10BD00BFBC
:10149000B0070024B40700240FB400B583B004A93A
:1014A00051F8040B0191FFF7DFFF03B05DF804EB87
:1014B00004B0704710B5044600210A4800F07AF8DD
:1014C000002C094B14BF0222002208481A60FFF7C3
:1014D000E3FF0748FFF7E0FF0A20BDE8104002F0F5
:1014E0007DB900BF34080024AC070024E02A0108BD
:1014F000F02A0108064A0749074808B510F068F8BD
:10150000034A04490548BDE8084010F061B800BF2F
:1015100000000024A5130008340800243808002423
:1015200070B5044682B0C1F30726CDB2ADF8041001
:1015300002F052F94FF480724FF001232060A01D99
:10154000A571A280E671A36002B0BDE8704000F012
:1015500007BE00BF38B5044602F03EF900222368FA
:101560002271834210D00122A57AE37A954020604F
:101570002271A01D6DB243B900F0CEFE40B22843E7
:10158000C0B27F28A0720AD038BD00F0C5FEB0FA04
:1015900080F040092843C0B27F28A072F4D102F045
:1015A0001BF907EE900AF8EE677AC4ED037A38BDAE
:1015B000704700BF012910B506D0022915D051B1DE
:1015C000BDE8104006F0CABF0A46344834490BF063
:1015D0003FFAE8B1FEE7334B0A46334C334934480F
:1015E0001C600BF035FA68B1FEE701222C492B484C
:1015F0000BF02EFA00B1FEE72E4928480BF04AFA0C
:10160000C0B1FEE72B492A480BF044FA60B1FEE76F
:10161000284922480BF03EFA00B1FEE726491F4850
:101620000BF0C6F908B3FEE7244921480BF0C0F9D6
:10163000A8B1FEE7204919480BF0BAF900B1FEE75E
:1016400016480BF03DFA024640B9164B164C1749A6
:1016500017481C600BF0FCF968B1FEE7FEE7144880
:101660000BF02EFA0028ABD0FEE70C480BF028FA5E
:101670000028A5D0FEE70F490D480BF00BFA00B18A
:10168000FEE70E490A480BF093F900B1FEE708485F
:101690000BF016FA002893D0FEE700BFD80A00240A
:1016A000A4000024740D0024B11500088800002453
:1016B0003C0800240C010024680000245800002489
:1016C000084691B208B502F033FB003818BF01207C
:1016D00008BD00BF014806F01FBA00BF283B002428
:1016E000014806F019BA00BF283B0024014806F063
:1016F00013BA00BF283B002482B04FF0000C032334
:10170000ADF80410BDF8042080F810C002804380BA
:1017100002B0704782B0082AADF800304FF00303E2
:10172000ADF804104380BDF80410BDF80830BDF8D2
:1017300000C0018003811346BDF80C1028BF0823A8
:10174000042AA0F804C08181037406D8022A0AD8AA
:1017500001D10123C38002B070470123C3804381BC
:10176000C38102B070470123C380438102B0704738
:101770002DE9F04FBE4E00258FB0BE4C037006F130
:10178000400342600746019288462022294630469F
:10179000C4F85831C4F85461CDE90355CDE9055575
:1017A000CDE90755CDE90955CDE90B550FF066FF99
:1017B0002022294604F59970C4F82151C4F8255116
:1017C000C4F82951C4F82D510FF058FF019B84F83B
:1017D000385284F820317A68002A5FD02B4641467F
:1017E000B64604F5907599464FF0010A03EB0310D5
:1017F000D1F800B0D1F804800133D1F808C0221824
:10180000CE6844F800B0C2F80480C2F808C0D660C0
:10181000087C2EF8029B10740A7C05F8012F002A20
:1018200069D07A68113184F838A29A42DED84FF430
:10183000802291489DF8043008214FF000084FF0B5
:101840000009C4F874310023C4E957020122C4F826
:10185000643184F87031C4E95A2194F83812C4E92B
:10186000608981B3C4F88821002284F8713184F83A
:1018700078313B78C4E96322A3B30122002001211F
:10188000013B84F89421C4E96801082B2CD8DFE8D7
:1018900003F0ABB0B5BABFC4C9CFD6009DF80430D1
:1018A0000121C4F86421C4F874314FF4802384F812
:1018B0007021714AC4E9572308230022C4E95A134E
:1018C0000023C4E960230123002284F8713100233E
:1018D00084F878310323C4F888313B78C4E9632263
:1018E000002BCAD184F89431644803F05DFB0346B1
:1018F00038B1FFBEFEE77A6811319A423FF676AF03
:1019000095E703A95D48039303F0ACFC0546002866
:1019100068D1022240F2FF73CDE90823002304229C
:10192000CDE90A2394F82031002B00F0D5804FF048
:10193000060921E0022B00F08980012B40F0C480D1
:101940009AF80130012B00F0C180002B4C4B18BFDE
:10195000002306A94948CDE9063902F051FF0028C5
:1019600040F0BF80013594F82031EDB2AB4240F237
:10197000B380444B53F825902FB207EB071704EBC5
:10198000070A504600F0ECFB05EB051323441B7CD3
:10199000042B7DDC022B00F3918000F08D80631915
:1019A000002283F81021E35D002BC3D19AF80130A7
:1019B000062B00F08580072B00F08A80022B00F0B8
:1019C0009680032B00F09580002B00F09680012B71
:1019D00000F09180042B00F09280052B2A4B18BF59
:1019E0000023B6E7FFBEFEE703224023C4E96623D7
:1019F0007AE707226023C4E9662375E70F22802374
:101A0000C4E9662370E71F22A023C4E966236BE7BD
:101A10003F22C023C4E9662366E77F22E023C4E9AE
:101A2000662361E7FF224FF48073C4E966235BE716
:101A300040F2FF124FF49073C4E9662354E740F27A
:101A4000FF324FF4A073C4E966234DE79AF80130E2
:101A5000042B37D0052B3DD0002B40D0012B42D09A
:101A6000022B42D0032B094B18BF002371E700BFA4
:101A7000C0400030800D002400200240DC0E002415
:101A80000002B025002B01080000B84F002090365E
:101A900003233E1D04EB05084FF0000B264488F895
:101AA000103130460BF1010B00F05AFB98F8103161
:101AB00004365B45F5DC76E70123EAE70223E8E735
:101AC000104B46E7104B44E7002342E70F4B40E73B
:101AD0000F4B3EE70F4B3CE70FB0BDE8F08F0E4BCE
:101AE00037E7FFBEFEE70D4B33E70D4B31E70D4BFC
:101AF0002FE70D4B2DE70D4B2BE70D4B29E70D4B3A
:101B000027E700BF0800900C1000C0102000F01460
:101B10008000501D000180210004002A0008302EA2
:101B2000001060320040C03A0080F03E0000524792
:101B3000000021430000844B38B5094C40F2FF728D
:101B40004FF0011104F5AE75284603F039FB94F807
:101B50002021D4F854112846BDE8384003F0A4B839
:101B6000800D0024214B02689A4200D07047204A21
:101B700000232048D2F8D81030B51F4C41F0200186
:101B800083B0C4F8C001092004F5E075C4E971030D
:101B90004FF48060C2F8D810D2F8D8204FF400611A
:101BA000C4E9733094F8380202F02002C4F8D4116A
:101BB0004FF40051984201922846C4F8D811C4E964
:101BC0007833019B14BF00234FF48073C4F8DC31D9
:101BD00003F018FF08B1FFBEFEE704F5AE73C4F8CA
:101BE000A851C4F8F83103B030BD00BF0020024056
:101BF0000044025840000240800D0024014804F0D7
:101C000079BA00BF400F002402682DE9F84F4B4B12
:101C10009A4201D0BDE8F88F494D95F83832002B33
:101C2000F8D095F82031002B77D0002405F10C096D
:101C300005F5997605F59077A04613E003F00101CC
:101C400017F811BCA9F1080000F074FBBBF1010FFB
:101C500025D895F82031013409F111090236A2B2D4
:101C600093422BD917F8012F002AF4D0D5F854311C
:101C70000021327833F81400D5F8583103EB0413FF
:101C800023F81200338801339BB233805FFA83FA62
:101C90003A789A42D2D88A46A6F80080D0E7CAF3AA
:101CA0004001A9F1040000F045FBBBF1020FCAF3AB
:101CB0008001CED0484600F03DFBCAE7002395F8EE
:101CC0003802204909229842C5F8C8314FF4806093
:101CD000C5F8C011C5F8C4214FF400614FF400529B
:101CE000C5F8CC3108BF4FF48073C5F8D821C5E9D9
:101CF000740100221448C5E97732C5F8E42103F0E5
:101D000081FE08B1FFBEFEE795F82021D5F85411F9
:101D10000E48BDE8F84F02F0C7BF0A4909224FF448
:101D20008060C5F8C831C5E970124FF400614FF406
:101D30000052C5E97330C5E97512DAE700200240A8
:101D4000800D002440000240400F0024DC0E0024DF
:101D5000704700BF4F4B02689A4200D070474E4B0D
:101D6000D3F8E81030B541F000514C4C85B0D4F8B0
:101D70004821C3F8E810D3F8E81001F000510191B0
:101D80000199D3F8E01041F00101C3F8E010D3F855
:101D9000E03003F001030293029B32F002033DD0D6
:101DA000013A012A6BD9D4F84C31012B0AD0002218
:101DB0003620114603F0CAFA362005B0BDE830409F
:101DC00003F002BBD4F8483133F0020234D0013BB7
:101DD000012BECD8442240233149324DC4F88C10F9
:101DE00000212846C4F8B010C4E9242300224FF48F
:101DF0008063C4E926234FF400624FF40053C4E922
:101E000028234FF480724FF48033C4E92A2303F06F
:101E1000F9FD80B9E560C4F8C440C8E74FF48062BA
:101E2000032303A8ADF80C208DF80E3000F098F9CC
:101E3000D4F84821B4E7FEE71B4BA2634322636159
:101E400040231A4DC4E9062300224FF4806328463C
:101E5000C4E908234FF400624FF40053C4E90A2395
:101E60004FF480724FF48033C4E90C2303F0CAFDB1
:101E700020B9D4F84831A560E464A8E7FEE74FF440
:101E8000A062032303A8ADF80C208DF80E3000F0FB
:101E900067F988E70074004000440258C00F00242E
:101EA000280402404C10002410040240D40F0024E7
:101EB000014804F01FB900BFD40F0024014804F00A
:101EC00019B900BF4C10002410B5054C204603F092
:101ED000C9FB04F58270BDE8104009F051BA00BF9B
:101EE000C00F0024164BD3F84821D3F85811022A0A
:101EF0004FEA510130B583B00CD088B2D3F85C21E1
:101F0000D3F8644102EB400300930CB16846A0474C
:101F100003B030BDD3F86021002AF9D088B2D3F8DD
:101F20005C41D3F8645104EB400402EB4002CDE97C
:101F30000042002DECD06846A84703B030BD00BF7A
:101F4000C00F0024134BD3F84821022A10B582B0E9
:101F50000CD0D3F85C11D3F86421009122B1D3F8EE
:101F6000581168464908904702B010BDD3F8602167
:101F7000002AF9D0D3F85C11D3F86441CDE90012FE
:101F8000002CF1D0D3F8581168464908A04702B098
:101F900010BD00BFC00F0024094BD3F84821022A0E
:101FA0000DD000B5D3E9581283B0019122B1D3F816
:101FB000581101A84908904703B05DF804FB704729
:101FC000C00F00240B4BD3F84821022A10D0D3F8BD
:101FD000581110B5D3E95824C1F34F0382B0490812
:101FE00002EB430301930CB101A8A04702B010BD5E
:101FF000704700BFC00F002430B58C463A4C3B4DB3
:102000008DB0046004F5A27EBCE80F00AEE80F00BE
:10201000DCF8003020462560CEF8003003F062FA8C
:102020000023D4F84C510393C5B11622012D04921C
:1020300017D00022D4F85411D4F848319142CDE998
:10204000062218BF0222059233F0020235D0013B6E
:10205000012B3CD9002528460DB030BD0223049346
:10206000E7E7234A0093C4F80C31C4F81431C4F8EC
:102070000421C4F81C31CDE9013301F01DFDD4F871
:1020800044314BF68032C4F80851002B08BF134688
:10209000B0FBF3F304F58270C4F8103108F0DAFFF6
:1020A0000028D8D120230290694604F5827000935D
:1020B00009F01EFA0028BCD0CDE703A90A4803F0B6
:1020C00005FB78B9D4F84831013B012BC2D8102266
:1020D00003A9054803F0FAFA051E18BF0125284692
:1020E0000DB030BD0125B6E7C00F002400740040DC
:1020F0000010004070B504681D4682B01046D4F848
:102100004C31012B03D0D4F84831022B24D1D4F820
:102110005031069A002BC4F85C11C4F864212B4698
:102120000CBF08260026C4F860010A46C4F85851BE
:1021300000212046009603F0EBF9D4F860212B46ED
:1021400010212046009603F0E3F904F5827009F0AF
:1021500021F8002002B070BD012002B070BD00BFA8
:102160008378022B30B504468FB037D0032B33D0A1
:10217000012B31D000230A93E378012B2AD0022BC4
:1021800028D000230B93002320460C9302F0B2F9D1
:102190000546204602F0B6F923780990082B13D89B
:1021A000DFE803F01F3245586B7E91A40500594BC0
:1021B000D3F8E02042F48072C3F8E020D3F8E03096
:1021C00003F480730893089B09A9284604F0E4FAF5
:1021D0000FB030BD0B93D6E70A93CDE711230A93D6
:1021E000CAE74C4B09A92846D3F8E02042F0010287
:1021F000C3F8E020D3F8E03003F001030093009B24
:1022000004F0CAFA0FB030BD424B09A92846D3F8F2
:10221000E02042F00202C3F8E020D3F8E03003F0FF
:1022200002030193019B04F0B7FA0FB030BD394BA4
:1022300009A92846D3F8E02042F00402C3F8E020C0
:10224000D3F8E03003F004030293029B04F0A4FAF5
:102250000FB030BD2F4B09A92846D3F8E02042F03B
:102260000802C3F8E020D3F8E03003F0080303933A
:10227000039B04F091FA0FB030BD264B09A9284604
:10228000D3F8E02042F01002C3F8E020D3F8E030A9
:1022900003F010030493049B04F07EFA0FB030BDEA
:1022A0001C4B09A92846D3F8E02042F02002C3F8CD
:1022B000E020D3F8E03003F020030593059B04F001
:1022C0006BFA0FB030BD134B09A92846D3F8E020B4
:1022D00042F04002C3F8E020D3F8E03003F04003BE
:1022E0000693069B04F058FA0FB030BD094B09A9BC
:1022F0002846D3F8E02042F08002C3F8E020D3F86B
:10230000E03003F080030793079B04F045FA0FB019
:1023100030BD00BF0044025838B5054602F0EAF867
:102320000446284602F0EEF801462046BDE8384053
:1023300004F03ABC70B506460D4602F0DBF80446E0
:10234000304602F0DFF82A1E0146204618BF01225F
:10235000BDE8704004F02EBC0023122270B586B098
:10236000CDE9022304930368032B01D804230593CA
:10237000061D841D304602F0BDF80546304602F0C9
:10238000C1F8034601A92846019304F005FA204646
:1023900002F0B0F8034620461C4602F0B3F801A94B
:1023A00003462046019304F0F7F906B070BD00BF64
:1023B000634A0368934210B58CB028D0614A9342B7
:1023C00058D0614A934200F09480604A934201D011
:1023D0000CB010BD5E4C5F48D4F8E03043F002030F
:1023E000C4F8E030D4F8E03003F002030A930A9B0B
:1023F000FFF7B2FFD4F8F43043F08003C4F8F430B0
:10240000D4F8F43003F080030B930B9BE0E7504CBF
:102410005148D4F8E03043F00203C4F8E030D4F877
:10242000E03003F002030193019BFFF795FFD4F81E
:10243000E83000221F2043F400131146C4F8E830AE
:10244000D4F8E83003F400130293029BD4F8D83098
:1024500043F00103C4F8D830D4F8D83003F00103B6
:102460000393039B02F072FF1F200CB0BDE81040E5
:1024700002F0AABF364C3948D4F8E03043F080036C
:10248000C4F8E030D4F8E03003F080030493049BF8
:10249000D4F8E03043F00203C4F8E030D4F8E03080
:1024A00003F002030593059BFFF756FFD4F8E830CD
:1024B0000022212043F480031146C4F8E830D4F808
:1024C000E83003F480030693069BD4F8D83043F039
:1024D0000103C4F8D830D4F8D83003F001030793CF
:1024E000079B02F033FF21200CB0BDE8104002F042
:1024F0006BBF1B48FFF730FF154B00224820D3F875
:10250000E840114644F40004C3F8E840D3F8E8403A
:1025100004F400040894089CD3F8D84044F0010463
:10252000C3F8D840D3F8D83003F001030993099BCE
:1025300002F00CFF48200CB0BDE8104002F044BF90
:102540000054004000580040005C0040001C00584F
:1025500000440258B41300242C1100240412002457
:10256000DC1200242DE9F0431A4B87B000254FF010
:1025700010099E46EC46184BFF22E04667461A704B
:102580000EF118060EF13004CDE90055CDE90255E3
:10259000ADF80090BCE80F00CDE90455AEE80F009F
:1025A0009CE803000095ADF800908EE80300B8E8C1
:1025B0000F000FC69CE803000095ADF8009086E878
:1025C00003000FCF0FC49CE8030084E8030007B0AA
:1025D000BDE8F083080000242811002410B5EFF3B3
:1025E000108472B6084B1A78120602D504B962B686
:1025F00010BD1B78D82205485BB202FB03001430E3
:1026000003F078FDF2E700BF281100242C1100240C
:10261000014805F067B900BFB8110024014805F072
:1026200061B900BF90120024014805F05BB900BFFA
:10263000681300242DE9F0430F68D8243F4D85B07E
:1026400007FB04F4032F05EB0403036040DCCB68B5
:102650000E46012B3CD84DD04FF0D808B646DFF8D7
:10266000FC9008FB0758BEE80F00C446ACE80F001A
:10267000DEF800300DF1100ECCF80030D8F808C0AC
:1026800099E80F000EE90F000EEB8703BCF1010F74
:1026900053F8103CC8F88C3031D0BCF1020F42D056
:1026A000BCF1000F35D0317C8C34D82300220120BE
:1026B0002C4403FB07534900C3E92602C3F89410D6
:1026C0002046C3E92822C3E92A2204F0FDFE18B1FE
:1026D000012005B0BDE8F0830146204605F00EF963
:1026E0000028F5D10146204605F032F9003818BF20
:1026F0000120EEE70B7C103B672BADD9E8E701F03A
:10270000D9F90F4B98420CBF0E4B0F4BC8F89030C5
:10271000C9E701F0CFF90A4B98420CBF0B4B0C4BA9
:10272000C8F89030BFE701F0C5F9054B98420CBFDF
:10273000084B094BC8F89030B5E700BF2C110024B6
:10274000000E27072D0FB0303211D0205F4390606C
:102750008A62E030200BA0101A098010482A010874
:102760002DE9F041D0F8008082B00D4617461E4694
:1027700008F18C04204605F0BDF82028FAD1D8F8DD
:102780000C3073B96D002046089C33463A46A9B216
:10279000009404F0EFFE003818BF012002B0BDE83D
:1027A000F081089B32463946204604F0B7FFF2E735
:1027B000044B10221A7483F8E82083F8C02183F8B0
:1027C000982270472C11002430B5002395B04FF4A7
:1027D0008071062204460B9306921393CDE90C13E5
:1027E000CDE90E33CDE9113301F068F907282BD07C
:1027F00004F1100541F2883206A9284605F0FAFFD7
:1028000028B10123184684F85C3015B030BD02228F
:10281000022306A92846CDE9002310220123CDE991
:10282000022300224FF48003CDE9042305224FF058
:10283000807306926A460F9341F2883306F046F998
:102840000028DED115B030BD0323012084F85C30B0
:1028500015B030BD0000000070B50023A4B04FF0EB
:1028600080724FF480750446ADF806300D93CDE9C3
:1028700010320122CDE90E53CDE91223CDE91433F4
:10288000002943D0F02300F1100508AEADF8063062
:10289000C02341F2883231462846089305F0AAFF4A
:1028A00028B10123184684F85C3024B070BD41F291
:1028B00088320DF10601284606F006F80346002886
:1028C000EFD105224FF480711E93284616924FF0E7
:1028D00080721B9321931F9202AA9FED1F7BCDE96B
:1028E0001C13CDE922338DED027B9FED1D7B41F260
:1028F000883316A98DED047B9FED1B7B8DED067B48
:1029000006F0E4F80028CCD124B070BD00F1100529
:1029100008AE612341F2883231462846089305F01B
:1029200069FF0028BDD141F288320DF10601284629
:1029300006F048F80028B4D1BDF80630204623F050
:10294000780343F04003ADF80630FFF73DFF002861
:102950009ED0A6E7AFF30080000000000100000059
:102960001000000001000000000000000000400016
:102970002DE9F04F00234FF4807501264FF0807849
:1029800004462DED028BABB08DF8073013932193E5
:10299000299314950E96CDF85C80CDE91533CDE9D9
:1029A0001863CDE91A33CDE92253CDE92433CDE9BB
:1029B000273306231C9301F081F8072808D004F17F
:1029C000100741F288321CA9384605F013FF40B1C8
:1029D0000123184684F85C302BB0BDEC028BBDE8B7
:1029E000F08F4FF0020A4FF0020B4FF0050941F251
:1029F000883308AA1CA93846CDF89480CDF8709089
:102A00009FED2D8BCDE908AB4FF0000A4FF4800B02
:102A10008DED0A8BCDE90CAB06F058F80028D7D124
:102A200041F2883238460EA905F0E4FE0028CFD1E5
:102A3000402341F288320DF1070138468DF8073006
:102A400005F042FF0028C3D141F288330EA902AA43
:102A50003846CDF83890CDF85C809FED197B8DED30
:102A6000048BCDE906AB8DED027B06F02FF8034613
:102A70000028ADD1CDF870904FF00109CDF89480C9
:102A80004FF00008219308AA29931CA938462295E3
:102A9000CDE92333CDE9273341F288338DED0A8B1D
:102AA000CDE90CABCDE9088906F010F8002893D0E9
:102AB000304684F85C608FE71000000001000000E1
:102AC00040000000400000002DE9F043624CA3B03C
:102AD0000D46046000F0F2FF072800F0A980286886
:102AE00023466968AA6807C31E46AB8926F8043BDB
:102AF0003046257B677B05F05FFEE0B9574B012D23
:102B00004FF00108E061236114BF4FF480134FF4CC
:102B10000003C4E9058893FAA3F3B3FA83F34FF4EF
:102B20008079013BC4F82490C4E90B00304623624D
:102B300005F0D6FD38B10122134684F85C20184612
:102B400023B0BDE8F08366230B90139041F28832E6
:102B500006A90693CDE90C90CDE90E00CDE9110050
:102B6000304605F047FE0028E5D1992341F288322E
:102B700006A93046069305F03DFE0028DBD105236B
:102B80001C9019906A4614934FF08073219014A9F9
:102B90001D9341F288339FED2A7BCDE91A90CDE950
:102BA0001F008DED007B9FED287B30468DED027B75
:102BB0009FED277B8DED047B05F088FF0028BAD1BF
:102BC00029462046FFF748FE0028B4D12046FFF7EB
:102BD000CFFE03460028AED1002FB0D11893304667
:102BE0000027002606AA14A9CDF86890CDE91F3366
:102BF000EB2314934FF440631B934FF4005317934C
:102C00004FF440431C93A0231693062319934FF0CF
:102C1000805321934FF04073CDE906671D9305F073
:102C2000CDFF034600288AD0434684F85C8086E7BF
:102C300001230322184684F85C2023B0BDE8F0830A
:102C40000000000001000000100000000100000072
:102C500000000000000040008C14002400500052CE
:102C60002DE9F04F8FB0414B0024026800AF9A422B
:102C70007C63C7E90944C7E90B4403D03C37BD4630
:102C8000BDE8F08F3A4B40F609213A48EB46D3F8BD
:102C9000D42007F11C0607F1220A4FF0020942F482
:102CA00080424FF00308C3F8D420D3F8D42002F4B4
:102CB0008042BA60BA68D3F8E02042F04002C3F81C
:102CC000E020D3F8E02002F04002FA60FA68D3F87E
:102CD000E02042F02002C3F8E020D3F8E02002F028
:102CE00020023A613A69D3F8E02042F01002C3F8BA
:102CF000E020D3F8E02002F010027A617A69D3F87C
:102D0000E02042F00202C3F8E020D3F8E030F8619E
:102D100003F002033984BB61174B7B60BB697B689E
:102D200053F8040F7B6001F0E5FB7B6805461868EB
:102D300001F0E8FB16F8013B786207F12401284610
:102D4000C7F830807B63C7E90A9403F025FD564538
:102D5000E5D100225C20114602F0F8FA5C2002F076
:102D600033FB3C37DD46BD46BDE8F08F00500052D6
:102D7000004402580A0A0909E8140024114B0268A9
:102D80009A4200D07047104A70B5D2F8D4300F4C38
:102D900023F4804304F11806C2F8D43054F8040F29
:102DA00001F0A8FB0546206801F0ACFB014628466F
:102DB00003F032FEB442F1D15C20BDE8704002F075
:102DC00011BB00BF0050005200440258E814002418
:102DD000014805F07FBF00BF9C140024084B1A1D5A
:102DE000981D03F1080110B49C1C9A6603F10A02B5
:102DF000C3E91834C3E91B015DF8044B5A677047F7
:102E00008C14002438B5036871B9026A00F12805F2
:102E100000F5AC74012A0CBF002140218BBB1D4B77
:102E20005722C0F858310DE0426A00F1C00500F5A4
:102E3000E874012A0CBF00214021EBB1164B5A2245
:102E4000C0F8D03100232046C4E901214FF480525C
:102E50004FF48061636262614FF48042C4E90331E0
:102E60004FF48073C4E906234FF40033236202F069
:102E7000C9FD58B1FFBEFEE7084B5822C0F8D0315B
:102E8000E0E7074B5922C0F85831DBE7C5E9204499
:102E9000A56338BD100002407000024028000240C7
:102EA000580002402DE9F043821D05468BB0031DFA
:102EB00005F10A010830CDE9052305F10C02AB69E3
:102EC000CDE907010992002B3DD0EB69B3FA83F8F5
:102ED0004FEA58180123022205AE0AAF4FF0060947
:102EE0000393CDE9012356F8044B2B7922789342C2
:102EF00016D02B68F3B1012B02D1F2B10A2304934F
:102F0000204601F0FFFA03462046009301F0F2FA52
:102F1000694603F041FCBE42E5D10BB0BDE8F08349
:102F2000697963789942E4D1B8F1000FF3D02B6846
:102F3000002BE0D1CDF81090E2E76378022B14BFAC
:102F40000A230823DBE74FF00108C3E7534A03686D
:102F5000934230B505468BB055D02032934252D0C3
:102F60004F4A934204D02032934201D00BB030BD7F
:102F70004C4C4D48D4F8E03043F00103C4F8E03045
:102F8000D4F8E03003F001030593059BD4F8E0305A
:102F900043F00803C4F8E030D4F8E03003F008034D
:102FA0000693069BD4F8E03043F04003C4F8E030C9
:102FB000D4F8E03003F040030793079BD4F8F030D7
:102FC00043F40003C4F8F030D4F8F03003F4000305
:102FD0000893089BFFF766FFD4F8D830296843F0C0
:102FE00001032F4A3048C4F8D830891AD4F8D830B1
:102FF00018BF012103F001030993099B0BB0BDE841
:103000003040FFF7FFBE274C2848D4F8E03043F0AB
:103010000103C4F8E030D4F8E03003F0010300937A
:10302000009BD4F8E03043F01003C4F8E030D4F84B
:10303000E03003F010030193019BD4F8E03043F03B
:103040004003C4F8E030D4F8E03003F040030293CA
:10305000029BD4F8F03043F48003C4F8F030D4F885
:10306000F03003F480030393039BFFF71BFFD4F8B6
:10307000D830296843F00103084A0C48C4F8D83016
:10308000891AD4F8D83018BF012103F00103049342
:10309000049B0BB0BDE83040FFF7B4BE04580140BC
:1030A000045C014000440258601700240415002409
:1030B000014803F01FB800BF5C160024014803F06C
:1030C00019B800BFD4160024014803F013B800BF9C
:1030D000B8180024014803F00DB800BF30190024CF
:1030E0002DE9F04F0C684FF41776754F87B004FB4D
:1030F00006F6012C07EB060AC0F800A000F3A0803A
:103100000D468E464FF00008D44669A3D3E900234C
:1031100069A1D1E90001CDE9022306ABCAF85082CA
:1031200003EB8403CDE9040153F810BC53F8083CC9
:10313000CAE992880193BEE80F00ACE80F00BEE830
:103140000F00ACE80F00019B9EE80300CAF828B00E
:10315000CAF8C0308CE803002B69042B0CD8DFE8D8
:1031600003F0737D879103004FF41773554A03FBF7
:1031700004739A64C3F8E020AA692B6A002A43D03A
:10318000002B4FF4177308BF022203FB047318BF10
:103190000322DA6201221A63EA696B6A002A40D1CB
:1031A000191E4FF4177318BF012103FB0473C3E901
:1031B00031126B69022B05D8434A12F80380434A47
:1031C00052F823904FF4177306F1280042464946FF
:1031D00003FB04740023384463646363E365C4F849
:1031E000DC30C4F8CC30C4F8F430C4E90F33C4E99F
:1031F0001533C4E93533C4E93B33022307F00CFE31
:10320000002849D0FFBEFEE7191E4FF4177318BF00
:10321000012103FB0473C3E90B12EA696B6A002AFC
:10322000BED0002B4FF4177308BF022203FB0473B8
:1032300018BF0322C3F8C4200122C3F8C820B8E78E
:10324000012007B0BDE8F08F4FF417734FF4FA5226
:1032500003FB04739A64C3F8E0208DE74FF41773FF
:103260004FF47A5203FB04739A64C3F8E02083E7B7
:103270004FF417734FF4FA4203FB04739A64C3F8D4
:10328000E02079E74FF417734BF6803203FB0473A9
:103290009A64C3F8E0206FE706F1C00002234246BB
:1032A0004946384407F0B8FD0028CAD0FFBEFEE703
:1032B00004580140045C014024580140245C014052
:1032C0000415002400770100402B0108442B01085D
:1032D0000068704703681B69042B05D8044A02EB99
:1032E000830393ED000A70479FED020A704700BF09
:1032F000502B010800803B47714A036811698B42DB
:1033000000B587B04BD0916E8B4200F0B680D2F8FA
:10331000C0108B4200F0B380D2F818118B4200F03D
:10332000B080B3F1804F1ED0664A93420DD0664AFA
:10333000934200F0A880654A934200F0B280644A4C
:1033400093421ED007B05DF804FB624BD3F8E8202F
:1033500042F00202C3F8E820D3F8E83003F0020399
:103360000293029BEEE75B4BD3F8E82042F00102A8
:10337000C3F8E820D3F8E83003F001030193019B80
:10338000E0E7544BD3F8E82042F01002C3F8E820FD
:10339000D3F8E83003F010030593059BD2E7002033
:1033A0005821B3F1804F01FB0022127B1ED045490A
:1033B0008B4235D044498B4248D044498B42BED1E0
:1033C000444BD3F8E81041F00801C3F8E810D3F8F3
:1033D000E83003F008030493049B002AB2D03220A3
:1033E00000220F2101F0B2FF322014E0394BD3F854
:1033F000E81041F00101C3F8E810D3F8E83003F019
:1034000001030193019B002A9CD01C2000220F2164
:1034100001F09CFF1C2007B05DF804EB01F0D4BF65
:103420002C4BD3F8E81041F00201C3F8E810D3F8B0
:10343000E83003F002030293029B002A82D01D2091
:1034400000220F2101F082FF1D20E4E7214BD3F879
:10345000E81041F00401C3F8E810D3F8E83003F0B5
:1034600004030393039B002A3FF46CAF1E20002249
:103470000F2101F06BFF1E20CDE7012090E7022015
:103480008EE703208CE7134BD3F8E82042F00402C8
:10349000C3F8E820D3F8E83003F004030393039B58
:1034A00050E70C4BD3F8E82042F00802C3F8E820BC
:1034B000D3F8E83003F008030493049B42E700BF0D
:1034C000BC1900240004004000080040000C00402B
:1034D00000100040004402580F4B026819698A42EC
:1034E0000BD0996E8A4211D0D3F8C0108A420FD007
:1034F000D3F818118A420DD070470021582202FBE0
:1035000001331A6D002AF7D0586D10470121F5E7F5
:103510000221F3E70321F1E7BC190024014807F079
:103520002FBF00BFCC190024014807F029BF00BFFE
:10353000241A0024014807F023BF00BF7C1A00248E
:10354000014807F01DBF00BFD41A0024F0B54FF0AA
:10355000580C0F682E4D8DB00CFB07FC032F05EBAC
:103560000C06066047DC0B460868344649689A68D2
:1035700007C41B7B237004AC7268264B002A4FF0F3
:103580000002726118BF1022B2610FCB84E80F00F5
:103590000CAB03EB870353F8203CB3F1804F33614E
:1035A00024D01D4A934221D030890CF110045823B5
:1035B0000021802203FB07532C44C3E907019A62D0
:1035C000204607F047FD034600B1FEE74FF4805266
:1035D00008A92046099301930892CDE90A33CDE961
:1035E000023307F007FE034640B1FEE7582303FB12
:1035F00007539868D9E701200DB0F0BD01A9204616
:103600000193039307F074FF0028F5D0FEE700BF95
:10361000BC190024582A0108000C0040006808B5B5
:10362000037B10302BB107F0CFFD003818BF01200D
:1036300008BD07F0AFFD003818BF012008BD00BF6E
:103640000C4B00224FF0FF311A739960196683F812
:103650006420C3F8B81083F8BC20C3F8101183F8B5
:103660001421C3E90022C3E91622C3E92C22C3E9CD
:1036700042227047BC190024704700BF08B501F012
:1036800049F8BDE8084001F029BF00BF064808B569
:1036900003680BB103F092FA044803681BB1BDE85C
:1036A000084004F039BA08BD38450024303F0024F2
:1036B000064808B503680BB103F080FA04480368B4
:1036C0001BB1BDE8084004F027BA08BD3845002406
:1036D000303F0024064808B503680BB103F06EFACA
:1036E000044803681BB1BDE8084004F015BA08BDE2
:1036F00038450024303F0024364BDA6A520062D548
:103700009A6A9A6A9A6A9B6A180600D500BE314B7B
:103710009B6A990600D500BE2E4B9B6ADA0600D53F
:1037200000BE2C4B9B6A1B0700D500BE294B9B6A31
:10373000980700D500BE274B9B6AD90700D500BE6D
:10374000244B9B6A1A0400D500BE224B9B6A9B0443
:1037500000D500BE1F4B9B6AD80400D500BE1D4B90
:103760009B6A190500D500BE1A4B9B6A5A0500D505
:1037700000BE184B9B6A9B0500D500BE154B9B6A8B
:10378000D80500D500BE134B9B6A990100D500BE39
:10379000104B9B6ADA0100D500BE0E4B9B6A1B03DF
:1037A00000D500BE0B4B9B6A580300D500BE094BE9
:1037B0009B6A990300D500BE064B9B6ADA0306D4C8
:1037C00000BE00BEFEE7DB6A9B07FAD5F8E700BE45
:1037D000F6E700BF00ED00E000F0A8BF00F0ACBFCE
:1037E0002DE9F041CEB004464C2200210AA80DF08C
:1037F00045FF2022002102A80DF040FFBC2200213D
:103800001EA80DF03BFF022004F082FE2368012B6E
:103810004FF0000354D0534A02250193C820D16AC7
:10382000514B21F00101D162D26A02F001020192F2
:103830009A6942F440429A619B6903F440430193C0
:10384000019B494A93699B04FCD548490224002204
:1038500001268B6A04274FF0080823F00303234353
:103860008B62052316900AA818934FF480331096A4
:10387000179419941597CDF86880CDE91B22212261
:10388000CDE91344CDE90A2305F02CFB00B1FEE796
:103890003F220323294602A8CDE902230022082360
:1038A000CDE9042340224023CDE9062340234FF4F1
:1038B0008062CDE9082305F043FE0346B8B1FEE778
:1038C000294A04250093F0209169264B41F4404198
:1038D0009161926902F440420092DA6A42F0010278
:1038E000DA62DB6A03F001030093009BA9E7202260
:1038F0004FF4805125934FF440152B9280222D9345
:103900001EA83093269135914FF480712492349201
:103910000C223394439140F2271120921022CDF8CB
:1039200084802A971F96CDE92E34CDE93B334FF49E
:103930008033CDE922463193002446930623CDE916
:103940003E4527934FF48063094C2C931E94CDE998
:10395000281206F051F800B1FEE704F0FFFD4EB06A
:10396000BDE8F081000400580048025800440258A5
:103970000F130F032DE9F0410D46044684B0D1E941
:10398000000184E8030000F095FEAE79002E37D0E8
:103990006F460BF049FAFEF7E5FD0AF0D5F80AF09C
:1039A000CDFF2B79002B54D16B799BB1BFF34F8F97
:1039B000BFF36F8F3C4B0022C3F85022BFF34F8FF1
:1039C000BFF36F8F5A6942F400325A61BFF34F8FD1
:1039D000BFF36F8F4FF0FF320023002400253946DC
:1039E000324802928DF80C30CDE90045FFF7AEFD6C
:1039F0002E48FFF713FE09F0D7FC04B0BDE8F081B4
:103A000020466F46FFF7ECFE012401F015FD4FF054
:103A100040534FF4807838460193254BADF8004071
:103A2000CDE9023801F026FD19224FF04043384617
:103A30008DF80F40ADF80D808DF801408DF80A60CB
:103A40008DF80820019301F015FD042001F002FD1E
:103A50009FE7154C0023C4F88430BFF34F8FD4F890
:103A6000803043F6E07EC3F3C906C3F34E334FEA1A
:103A7000431C0CEA0E00334640EA8372013BC4F853
:103A800060225A1CF8D1ACF1200C1CF1200FF0D1AF
:103A9000BFF34F8F636943F480336361BFF34F8F8C
:103AA000BFF36F8F80E700BF00ED00E01C1B002418
:103AB0000E00010305F074BE05F08EBE1C4B9B6822
:103AC00003F17842B2F5003F25D3B3F5803F20D310
:103AD00003F16042B2F5003F1FD303F15C42B2F53F
:103AE000002F1CD303F17042B2F5902F19D303F1CC
:103AF0004842B2F5803F16D303F18042B2F1806FA5
:103B000013D303F1E043B3F5000F2CBF08200720C7
:103B10007047012070470020704702207047032043
:103B2000704704207047052070470620704700BF8B
:103B300000ED00E003480023034A044903600DF050
:103B400047BD00BF1C1B002400000024793600087C
:103B500010B4204C0022204B83B0D4F888101F48AA
:103B600041F47001C4F8881019681D4C41F001013E
:103B700019601A61196808401A4918609A61DA6177
:103B80001A629A62DA621A635A639A63DA631A648F
:103B90005A64186820F4802018601A66D3F8DC2074
:103BA00042F06042C3F8DC20D3F8DC300193019B83
:103BB00023681940B1F1005F03D20B4B0122C3F817
:103BC0000821044B4FF000629A6003B05DF8044B8B
:103BD000704700BF00ED00E0004402587FEDF6EAB8
:103BE0000010005C0000FFFF00800051704700BF24
:103BF0000020704770B50446074E0D4630462146FA
:103C000008F0E8FE304608F007FF044B204629463E
:103C10001B689847002070BD3C080024203B00240E
:103C200070B50446074E0D463046214608F0D2FED8
:103C3000304608F0F1FE044B204629461B689847A1
:103C4000002070BDD80A0024243B0024002209492A
:103C5000094808B508F0B4FE0849074808F0BAFE5C
:103C6000074B1A680AB1002008BD064A00201A60F6
:103C700008BD00BF202B00243C080024201B00248A
:103C8000203B0024ED3B000800220949094808B503
:103C900008F096FE0849074808F09CFE074B1A6892
:103CA0000AB1002008BD064A00201A6008BD00BF06
:103CB00020330024D80A002420230024243B00249D
:103CC000ED3B000820280AD0212806D1094B1868AE
:103CD0009A889B7908608A808B7100207047054B19
:103CE0000868B1F804C08A7918600020A3F804C0FD
:103CF0009A7170477800002420280AD0212806D124
:103D0000094B18689A889B7908608A808B7100201B
:103D10007047054B0868B1F804C08A791860002024
:103D2000A3F804C09A7170478000002400207047F7
:103D300010B5094CD4F89032D3F814320BB10120ED
:103D400010BD0A460146204608F03AFE2046BDE86E
:103D5000104008F047BE00BF3C0800244B4A0368EF
:103D600030B593428BB04FF00004CDE90444CDE967
:103D70000644089404D0464A934249D00BB030BD63
:103D8000444D4FF4C0524448D5F8E03043F00103AD
:103D9000C5F8E030D5F8E03003F0010300930223CA
:103DA000009904A9CDE904230A23089302F0F4FC46
:103DB0004FF40072002304A937480694CDE9042388
:103DC00002F0EAFCD5F8D8302246214643F00063E1
:103DD0006220C5F8D830D5F8D83003F000630193DD
:103DE000019B01F0B3FA622001F0EEFA224621466F
:103DF000632001F0ABFA632001F0E6FA2246214687
:103E0000652001F0A3FA652001F0DEFA0BB030BDA9
:103E1000204D4FF4404204A9D5F8E03043F00203AE
:103E2000C5F8E030D5F8E03003F002030293022336
:103E300002981A48CDE904230C23089302F0ACFC45
:103E4000D5F8D830224621464A2043F00073C5F801
:103E5000D830D5F8D83003F000730393039B01F0FA
:103E600075FA4A2001F0B0FA224621464B2001F0B3
:103E70006DFA4B2001F0A8FA224621464D2001F0B0
:103E800065FA4D2001F0A0FA0BB030BD00000840EB
:103E90000000044000440258000002580004025888
:103EA00000F57171D0F8040408F022BEC1EBC10323
:103EB00000EB8303D0F80404D3F8082208F046BED0
:103EC000C1EBC10300EB8303D0F804049A6C08F043
:103ED0007BBE00BFD0F8040408F01ABFC16810B55B
:103EE000044619B1022900D0FEE70121D4F80404E8
:103EF00008F0F8FED4F80404BDE8104008F0CABE8B
:103F000010B50446D0F8040408F0F0FE2268D2F898
:103F1000003E43F00103C2F8003E236A23B1034A86
:103F2000136943F00603136110BD00BF00ED00E00C
:103F3000D0F8040408F0E4BED0F8040408F0F8BE99
:103F4000D0F8040408F0F2BED0F8040408F0F2BE81
:103F5000D0F8040408F0F0BE70B5067804461EB12F
:103F6000012E30D0002070BD304D0923304AC5F8F5
:103F70000404C0F8985228462E612E63C5E9002338
:103F800002230222EB600023C5E90623002200235E
:103F9000C5E9082301220123C5E90A2303F004FD32
:103FA00000B1FEE78021284604F092FA3146402213
:103FB000284604F063FA80220121284604F05EFAC4
:103FC0002678012ECED11B4D09221B4B00216A60A1
:103FD00002222B600223C5F804442846EB6000232C
:103FE000C4F898522961C5E9062300220023C5E9D7
:103FF0000823C5E90C2301220023C5E90A2303F0A5
:10400000D3FC044600B1FEE74FF40071284604F0EB
:104010005FFA21468022284604F030FA4FF4BA7243
:104020003146284604F02AFA9CE700BF283B0024CA
:1040300000000840303F002400000440D0F89802FF
:1040400008B503F047FD032802D8024B185C08BDF1
:10405000022008BD742B01089446D0F898021A4635
:1040600008B5634604F0BCF8032802D8024B185C7C
:1040700008BD022008BD00BF742B0108D0F89802CB
:1040800008B504F0EBF8032802D8024B185C08BD11
:10409000022008BD742B0108D0F8980208B504F07E
:1040A0006DF9032802D8024B185C08BD022008BD38
:1040B000742B0108D0F8980208B504F0A3F903287E
:1040C00002D8024B185C08BD022008BD742B010801
:1040D0000A06D0F8983206D4C1EBC10103EB810186
:1040E00091F8FE01704701F07F01C1EBC10103EBC4
:1040F000810191F83E007047D0F8980208B504F0AD
:1041000059F8032802D8024B185C08BD022008BDEC
:10411000742B0108D0F8980208B504F007F90328B9
:1041200002D8024B185C08BD022008BD742B0108A0
:10413000D0F8980208B504F0C7F8032802D8024B5B
:10414000185C08BD022008BD742B0108D0F8980245
:1041500004F0E2B8122301480B807047D400002419
:10416000122301480B807047C0000024042301483B
:104170000B807047E800002410B5044C0A46044840
:10418000214609F059F8204610BD00BF38430024ED
:10419000782B010810B5044C0A460448214609F062
:1041A0004BF8204610BD00BF38430024882B01087F
:1041B00010B5044C0A460448214609F03DF8204653
:1041C00010BD00BF384300249C2B010810B5044CDF
:1041D0000A460448214609F02FF8204610BD00BFCA
:1041E00038430024A82B010810B5044C0A460448A3
:1041F000214609F021F8204610BD00BF38430024B5
:10420000B82B0108042301480B807047E800002404
:1042100010B5044C0A460448214609F00DF8204622
:1042200010BD00BF38430024782B0108464A4FF0E8
:104230001A0CD2F80008D2F80838A1F800C0C31848
:1042400001D142487047180FB3F1204FD2F804183B
:104250004FF0000C3D4A2CBF3730303082F803C09D
:104260004FF0000C9070C3F3036082F805C04FF06C
:10427000000C092882F807C04FF0000C8CBF3730C3
:10428000303082F809C04FF0000C1071C3F30350B6
:1042900082F80BC04FF0000C092882F80DC08CBFCB
:1042A000373030309071C3F3034009288CBF37306A
:1042B00030301072C3F3033009288CBF37303030F0
:1042C0009072C3F3032009288CBF3730303010734D
:1042D000C3F3031003F00F0309288CBF37303030CD
:1042E000092B90734FF0000094BF30333733B1F196
:1042F000204FD07313744FEA11734FF000002CBF9E
:1043000037333033507400209374C1F30363D07497
:104310000020092B50754FF000008CBF373330332D
:10432000D0751375C1F303530848092B8CBF37337D
:1043300030339375C1F30343092B94BF30333733C4
:10434000137600235376704700E0F11FEC00002441
:10435000464A4FF01A0CD2F80008D2F80838A1F8F3
:1043600000C0C31801D142487047180FB3F1204F65
:10437000D2F804184FF0000C3D4A2CBF37303030D3
:1043800082F803C04FF0000C9070C3F3036082F812
:1043900005C04FF0000C092882F807C04FF0000C50
:1043A0008CBF3730303082F809C04FF0000C1071EC
:1043B000C3F3035082F80BC04FF0000C092882F8B9
:1043C0000DC08CBF373030309071C3F303400928E3
:1043D0008CBF373030301072C3F3033009288CBFE4
:1043E000373030309072C3F3032009288CBF373048
:1043F00030301073C3F3031003F00F0309288CBF90
:1044000037303030092B90734FF0000094BF3033B9
:104410003733B1F1204FD07313744FEA11734FF05B
:1044200000002CBF37333033507400209374C1F335
:104430000363D0740020092B50754FF000008CBF2F
:1044400037333033D0751375C1F303530848092B44
:104450008CBF373330339375C1F30343092B94BFBB
:1044600030333733137600235376704700E0F11F63
:10447000EC00002410B5044C0A460448214608F01C
:10448000DBFE204610BD00BF38430024A82B0108E6
:1044900010B5044C0A460448214608F0CDFE2046DB
:1044A00010BD00BF384300249C2B0108D0F8C00287
:1044B00008F034BFD0F8C00208F048BFD0F8C002FE
:1044C00008F050BF704700BFD0F8C00208F036BFF8
:1044D000D0F8C00208F036BFD0F8D00308B502F01B
:1044E0002DFF032802D8024B185C08BD022008BD2E
:1044F000CC2B0108024B027853F82200704700BF12
:10450000F02B0108024B427833F81200704700BFCD
:10451000D02B01088CB00A2814D8DFE800F015234E
:10452000313F4D5B6977859306004D4BD3F8E02012
:1045300042F48062C3F8E020D3F8E03003F48063F3
:104540000B930B9B0CB07047454BD3F8E02042F027
:104550000102C3F8E020D3F8E03003F00103019337
:10456000019BEFE73E4BD3F8E02042F00202C3F894
:10457000E020D3F8E03003F002030293029BE1E76E
:10458000374BD3F8E02042F00402C3F8E020D3F820
:10459000E03003F004030393039BD3E7304BD3F8DD
:1045A000E02042F00802C3F8E020D3F8E03003F046
:1045B00008030493049BC5E7294BD3F8E02042F09D
:1045C0001002C3F8E020D3F8E03003F010030593A5
:1045D000059BB7E7224BD3F8E02042F02002C3F856
:1045E000E020D3F8E03003F020030693069BA9E710
:1045F0001B4BD3F8E02042F04002C3F8E020D3F890
:10460000E03003F040030793079B9BE7144BD3F87C
:10461000E02042F08002C3F8E020D3F8E03003F05D
:1046200080030893089B8DE70D4BD3F8E02042F4FC
:104630008072C3F8E020D3F8E03003F4807309936C
:10464000099B7FE7064BD3F8E02042F40072C3F8E1
:10465000E020D3F8E03003F400730A930A9B71E77B
:1046600000440258704700BF0F4B1B780BB9012064
:10467000704710B504464FF47A700C4AB0FBF3F360
:104680001068B0FBF3F000F0C1FE0F2C00D808B1A9
:10469000012010BD002221464FF0FF3000F056FEF1
:1046A000034B00201C6010BD0601002450000024B4
:1046B0000801002438B50320124D00F035FE124CDD
:1046C00004F09EFE114A12499369C3F30323CB5CA5
:1046D00003F01F0320FA03F30E202B60926902F00F
:1046E0000F028A5C02F01F02D3402360FFF7BCFF79
:1046F00010B10124204638BD0446FFF7B3FF204621
:1047000038BD00BF5000002454000024004402586B
:10471000642B0108034A044B11681B780B44136097
:10472000704700BFFC47002406010024014B1868B5
:10473000704700BFFC47002438B50446FFF7F6FF7A
:104740000546631C02D0044B1B781C44FFF7EEFFA8
:10475000431BA342FAD338BD06010024014B18685D
:10476000000C70470010005C704700BF806B08B5FC
:10477000FFF7FAFF08BD00BF836B5A6D12F0500FB0
:104780005A6D10B51DD1196842F400725A650A6855
:1047900012F0080FCA681BD012F4406F0DD1CA681E
:1047A00094040AD45A6D22F480725A655A6DD10469
:1047B00003D45A6D42F001025A651846FDF724FAF7
:1047C00010BDD2060AD4DB6CBDE81040DB6C184784
:1047D0009007E7D01846FDF717FAF1E71846FDF7FE
:1047E000B7FA10BD806B08B5436D43F040034365D5
:1047F000836D43F004038365FDF7AAFA08BD00BF8B
:10480000F0B5002283B0019290F85020012A00F008
:104810001C81034601201A6883F8500094686407DD
:1048200000F18A800C68C4F31305002D40F08F80DE
:10483000C4F38464A0404D684FF01F0ED6694FEA60
:10484000951C30430CF00C0CD06105F01F0002F1F8
:10485000300584400EFA00FE5CF8050020EA0E00E8
:1048600004434CF80540906840076ED4956815F0F5
:10487000080547D10C68072002F11406B94F4FEA2A
:10488000D45CC4F304540CF0040C00FA04FE8868F1
:1048900000FA04F45CF8060020EA0E0020434CF80D
:1048A0000600386800F07040B0F1805F00F0C5800D
:1048B000D068D668C70600F1E880C6F3820648696A
:1048C000760000FA06F60F69042F00F0C18002F1AD
:1048D0006004086854F827C000F0F8400CF0004C61
:1048E00040EA0C00304344F82700487E0E69012856
:1048F00054F8260008BF4FF0004520F00040054363
:1049000044F826509068C40714D4CE68086806F0AE
:104910001807954CD2F8C050FC40C0F31307044070
:1049200025EA07052C43C2F8C040904CA64246D069
:10493000002816DB002003E05A6D42F020025A6581
:10494000002283F8502003B0F0BD9068DAE794FAB3
:10495000A4F5B5FA85F5C4F3846405F01F05A840F5
:1049600069E783498A4200F0B68001F580718A4286
:1049700000F0B1807F4D804CA968A46801F0E0761A
:10498000E44304F00104002C00F0B4807B4CA0420E
:1049900000F0FC807A4CA04200F01A81794CA042D1
:1049A000C8D14902C6D474498A42C3D1AA6800203A
:1049B00022F0E072324342F48002AA60C0E7002F86
:1049C0006AD090FAA0F4B4FA84F4013404F01F041D
:1049D000092C00F2A48090FAA0F4B4FA84F490FABE
:1049E000A0F5B5FA85F5013401260135A40605F0D8
:1049F0001F0504F0F84406FA05F52C4390FAA0F0E0
:104A0000B0FA80F0304400F01F0000EB40000005D9
:104A10002043C60D02F11405C0F30450072406F02C
:104A2000040604FA00F7745924EA07048F6807FAA9
:104A300000F02043705108687AE7D6684869C6F3E9
:104A40008206760000FA06F63DE7022003B0F0BDCC
:104A5000106E0C6800F0F840A506B0EB846F30D003
:104A6000506E00F0F840854226D0906E00F0F8407D
:104A700085422BD0D06E00F0F84085427FF442AFE3
:104A8000D06E20F00040D0663CE77608486906F01A
:104A9000080600FA06F616E7800E441C04F01F060E
:104AA000092E2DD8A406012004F0F844B040044398
:104AB00006EB46000005ABE7506E20F00040506664
:104AC000D3E7106E20F000401066C9E7906E20F02A
:104AD00000409066CEE7264C2B4D04F58074A96803
:104AE00054F8F86CA468344301F0E076E44304F031
:104AF000010448E75A6D012042F020025A651FE781
:104B000006EB4600A50601241E3805F0F84504FA18
:104B100006F60005354340F00070284379E790FA27
:104B2000A0F5B5FA85F590FAA0F4B4FA84F401354D
:104B300001260134AD0604F01F0405F0F84506FA1D
:104B400004F4254390FAA0F4B4FA84F4344404F055
:104B50001F0404EB4404A4F11E00000540F00070A3
:104B6000DBE700BF0010005CFFFF0F000000FF4705
:104B7000002002400063025800600258000084CB0D
:104B8000000052C70000B8CF0023024008023FF5E2
:104B9000D1AE17498A427FF4CDAE164AA968126891
:104BA000154821F0E07192093143A0FB020241F463
:104BB00000019209A96052000192019A002A3FF473
:104BC000B9AE019A013A0192019A002AF9D1B1E6EF
:104BD00011F080707FF4AEAE05498A427FF4AAAE30
:104BE000AA6822F0E072324342F08072AA60A7E61F
:104BF0000060025850000024632D3E0503689A6847
:104C0000D20701D5002070479968214A114270B53A
:104C1000044608D0636D012043F010036365A36D63
:104C20000343A36570BD99681A4A0A4042F0010225
:104C30009A60FFF77BFD2368174A054693421ED012
:104C400002F5807293421AD0144A9268114E0AE01B
:104C50009A68324042F001029A60FFF767FD401BFC
:104C60000228D7D823681A68D2070FD49A68D107C8
:104C7000EED5FFF75BFD401B0228F3D9CAE7084ACF
:104C80009268D006E2D0074A9342DFD1002070BD7F
:104C90003F000080C0FFFF7F0020024000630258F9
:104CA00000230240002102402DE9F0413A4D044624
:104CB00000680F461646A84219D0384B984216D0C5
:104CC000374DAB688068420716D494F85020012A0B
:104CD00012D003F01F080122B8F1090F84F8502008
:104CE0000DD90023012084F85030BDE8F0812D4D0E
:104CF000AB6880684207E8D50220BDE8F08140F249
:104D0000212323FA08F3DB4313EA0205E9D1204605
:104D1000FFF774FF002839D1626D234B21681340DF
:104D200043F480736365B8F1000F02D01B4B9942C6
:104D300003D0636D23F480136365636D13F48053B4
:104D400028D0A36D23F00603A365E06C3346174D0E
:104D50003A464031C563164D0564164DC5641C25A1
:104D600041F8405C002584F8505051F83C5C45F017
:104D7000100541F83C5C01F003F822680E4B916885
:104D80000B4043F004039360BDE8F08184F8505079
:104D9000BDE8F081A365D8E7002002400021024071
:104DA0000063025800230240FEF0FFFF794700082D
:104DB0006D470008E5470008C0FFFF7F38B503686E
:104DC0009A68910702D59B68002038BD9A68D2077F
:104DD00023D59A68044602F00D02012A08D0636DBB
:104DE000012043F010036365A36D0343A36538BD41
:104DF000986803210A4A024042F002029A60196050
:104E0000FFF794FC054604E0FFF790FC401B0228E6
:104E1000E5D823689B68DB07F6D4002038BD00BFC7
:104E2000C0FFFF7F38B5574A04460368934226D037
:104E300002F58072934222D0534B9B6813F4403F9B
:104E400022D004F097FC63680546B3F5003F00F0FC
:104E50008880B3F5403F70D0B3F5803F00F081808B
:104E6000FFF77CFC41F2030398422DD8474B9D424B
:104E70005DD92268936843F48073936038BD444BD6
:104E80009B6813F4403FDCD14FF4002005F03EFD59
:104E900063680546B3F5101F6DD008D8B3F5E01F61
:104EA00055D01AD9B3F5001FDAD14509D8E7B3F5C3
:104EB000201F4AD0B3F5301FD2D1FFF74FFC41F28B
:104EC0000303984233D92D0A324B9D421DD82268E4
:104ED000936823F44073936038BDB3F5801F06D008
:104EE0000AD9B3F5A01F02D0B3F5C01FB8D19B0CEF
:104EF0005B00B5FBF3F5B3E7B3F5002FF7D023F470
:104F00000022B2F5802FF2D0AAE7234B234A2B448C
:104F100093421ED9224B234A2B4493422268936822
:104F20002BD823F4407343F40073936038BD226898
:104F3000936823F48073936038BD8508FFF70EFCF7
:104F400041F203039842BFD890E7C50988E70509F5
:104F500086E72268936823F4407343F48073936078
:104F600038BD1B0CB5FBF3F5FFF7F8FB41F203036B
:104F70009842A9D87AE7850972E743F440739360B1
:104F800038BD00BF0020024000630258002D3101EF
:104F900000230240105E5F00EFA1A0FF0F5E5F00E4
:104FA000DF4341FF1FBCBE0030B5002383B0019337
:104FB000002800F0D080456D0446002D00F0BA8036
:104FC000226893689B0003D59168714B0B409360F6
:104FD0009368DD0015D46F4B90686F491B680140E2
:104FE0006E489B0941F08051A0FB030391609B092F
:104FF0000193019B2BB1019B013B0193019B002B72
:10500000F9D19368D80024D4636D012543F01003CF
:105010006365A36D2B43A365936813F0040F636D61
:105020001DD1D9061BD4636D23F4817343F00203B1
:1050300063659368DB0728D4594B9A4217D003F570
:1050400080739A4213D0574B9B68D9071DD4564A98
:1050500015E09368002513F0040F636DE1D0636DD4
:10506000012543F010032846636503B030BD4C4A68
:105070004E4B92689B681343D80706D44C4A9368FA
:10508000616823F47C130B439360FFF767FB41F2E5
:105090000303A1689842237F52D894F815C01A04DC
:1050A000206B42EA4C3202430A43012B03D1236AAC
:1050B000013B42EA4342636A23B103F47873A16A75
:1050C0000B431A4323683B49D86801400A43DA601E
:1050D0009A6812F0040F9A681CD112071AD4D86883
:1050E000354A217D024042EA8132E16A0A43DA60B0
:1050F00094F83820012A3AD01A6922F001021A6184
:105100001A692046616B22F070420A431A61FFF768
:1051100089FE2368E268012A21D01A6B22F00F026F
:105120001A63636D284623F0030343F001036365AC
:1051300003B030BDFCF716FDA56584F850503FE77D
:105140001029AAD1617D1A0442EA4132216B0A4337
:1051500042F01C02A9E70125284603B030BD196BB7
:10516000A26921F00F01013A0A431A63D9E7D4E991
:10517000102118690A43114901400A43A16C0A43EE
:10518000E16B42EA014242F001021A61B8E700BF56
:10519000C0FFFF5F50000024C0FFFF6F632D3E057E
:1051A00000200240006002580063025800210240C3
:1051B0000023024003C0F0FFFCBFFFFF1EF800FC0D
:1051C000F0B5002383B0019390F85030012B40D00C
:1051D000012304460E46154680F85030FFF7EEFDD9
:1051E000E8B9676D05F080421B4B06F480311B4D1A
:1051F0003B401B4F43F00203636523689E683540C4
:1052000015430D4345F000459D609A68002A0FDB69
:10521000636D23F0030343F00103636503E0636DF3
:1052200043F010036365002384F8503003B0F0BDF1
:10523000019A01320192019ABA42E6D9636D0022C5
:10524000012023F0120384F8502043F0100363651B
:10525000ECE7022003B0F0BDFDEEFFFFC0FFFE3F14
:10526000FF955A55F0B490F850200E68012A49D0A5
:105270000346294A01201C6883F85000944208D054
:105280005A6D002142F0200283F850105A65F0BC9C
:105290007047224DAA6852070AD5A2685A6D0120AC
:1052A00042F020025A65002283F85020F0BC70477B
:1052B000A06810F00400F1D1C6B1DFF868C04F68F3
:1052C000DCF8082022F440423A43CCF80820A468D5
:1052D000AA682243D40713D48A68DCF8081016435E
:1052E0000F4A0A401643CCF80860DCE70D498A688B
:1052F00022F440428A60A068AA680243D00704D51D
:105300000020D0E70220F0BC70478C683046044A89
:1053100022408A60C7E700BF00200240002102400F
:10532000E0F0FFFF0023024006494FF6FF0C0002A9
:10533000054BCA6800F4E06002EA0C021043034324
:10534000CB60704700ED00E00000FA051B4BDB6806
:10535000C3F3022300B5C3F1070E03F1040CBEF141
:10536000040F28BF4FF0040EBCF1060F1AD9033BFF
:105370004FF0FF3C0CFA03FC22EA0C024FF0FF3C1A
:1053800000280CFA0EFC21EA0C0101FA03F141EAB3
:1053900002010ADB09010A4BC9B2034483F8001376
:1053A0005DF804FB00221346E8E700F00F00090156
:1053B000044BC9B2034419765DF804FB00ED00E02C
:1053C00000E100E0FCEC00E0002807DB00F01F013A
:1053D00001234009024A8B4042F82030704700BF49
:1053E00000E100E000280DDB4309012200F01F006E
:1053F0000549203302FA00F041F82300BFF34F8F34
:10540000BFF36F8F704700BF00E100E0431EB3F1B0
:10541000807F0CD24FF0E022002006494FF0F00CC4
:105420005361072381F823C0906113617047012005
:10543000704700BF00ED00E0BFF35F8F044B002119
:105440005A6A22F480325A62C3F89410704700BF3F
:1054500000ED00E0064B40F00100C3F894005A6AEA
:1054600042F480325A62BFF34F8FBFF36F8F7047A1
:1054700000ED00E0174A4378C2F89830017821B374
:10548000436800B5C2F89C30C37A90F80CC01B0684
:1054900090F80FE043EA0C7390F80AC00B43817B4D
:1054A00043EACC4390F80DC043EA8C4390F809C01E
:1054B00043EA4143017A43EA0E4343EA0C2343EAB9
:1054C0004103C2F8A0305DF804FBC2F89C10C2F89A
:1054D000A010704700ED00E0704700BF08B5FFF76F
:1054E000FBFF08BD88B110B50379044603F0FF0245
:1054F0003BB1002302210122217118462361227150
:1055000010BD4271FCF726FCF3E70120704700BF95
:10551000F8B504464079069F012853D00D46114640
:10552000012226686271022222713DBBA068042F0D
:10553000374ADFF8E4C0C2633268C0F840C042F4C2
:105540008052DFF8D8C0C0F84CC0326042D0082F7B
:105550003DD0002F38D02A46376847F400573760CF
:1055600000F00EFC0023637138BB236805F01001C6
:1055700001251A688D4015431D60F8BDE068042FB1
:10558000244ADFF89CC0C2633268C0F840C042F0D1
:105590008052DFF890C0C0F84CC032602FD0082F86
:1055A00024D0D7B13768002247F00057376000F0A9
:1055B000E7FB002363710028D7D0236943F004037D
:1055C0002361F8BD0220F8BD06F10802C4E706F128
:1055D0001002C1E706F10C02BEE7376806F11402BB
:1055E00047F00057376000F0CBFBE2E7376806F181
:1055F0001C0247F00057376000F0C2FBD9E737685C
:1056000006F1180247F00057376000F0B9FBD0E709
:105610002956000805580008395600084956000860
:10562000155800082158000810B5846B2046FCF777
:1056300059FC0123237110BD806B08B5FCF782FC77
:1056400008BD00BF704700BF10B5846B23692046BA
:1056500043F004032361FFF7F5FF0123237110BD1D
:10566000704700BF03681A68910410B5044602D55C
:105670005A6B920418D41A68910002D55A6B9200A2
:1056800000D410BD04224FF000512046227122693F
:1056900042F00202226159631A6822F08052BDE88A
:1056A00010401A6000F0ACB804224FF400510271AF
:1056B000026942F00102026159631A6822F48052C1
:1056C0001A60FFF7CDFF2368D5E700BF2DE9F04151
:1056D00043790E460968012B00F08A8001230429D2
:1056E0000446154643714FF0020303713AD002F0AD
:1056F000100023683269012A2AD0D6E902252A43FC
:1057000007250A43716805FA00F6DD6B8240814087
:1057100025EA06052A434FF48045DA6385401A6876
:1057200022EA050240F6FE751A6085401A6822EAF0
:10573000050201251143C02219608240186800212A
:1057400020EA02001860084625716171BDE8F08109
:105750001F259A6B854022EA0505726982402A431B
:105760009A63CAE7D2B9FEF7E1FFDFF88C800746FB
:1057700004E0FEF7DBFFC01B012830D823685B6B19
:1057800013EA080FF5D10120FEF7D6FF2368B269AE
:105790001A640DE0FEF7CAFF012820D823685B6B6E
:1057A000002BF7DB0120FEF7C7FF2368B2695A64BC
:1057B00005F0100040F2FF319A6C814022EA0102AC
:1057C000F16981400A43FF219A648140DA6C22EA40
:1057D0000102316A81400A433168DA648AE7236949
:1057E000032243F00803104623612271BDE8F081D3
:1057F0000220BDE8F08100BF00800020704700BF9C
:10580000704700BF10B5846B2046FCF7DBFB01231B
:10581000237110BD806B08B5FCF7BEFB08BD00BF4F
:1058200010B5846B2369204643F004032361FFF71E
:10583000E5FF0123237110BD0268344B344930B4B5
:10584000344D354CAA4218BF9A420CBF01230023A5
:105850008A4208BF43F001033031A24208BF43F03F
:10586000010330348A4208BF43F001033031A242C1
:1058700008BF43F0010330348A4208BF43F00103FC
:1058800001F55C71A24208BF43F0010304F55C74AA
:105890008A4208BF43F001033031A24208BF43F0FF
:1058A000010330348A4208BF43F001033031A24281
:1058B00008BF43F0010330348A4208BF43F00103BC
:1058C0003031A24208BF43F001038A4208BF43F0CF
:1058D000010313B9114B9A4213D1D3B21049114CA1
:1058E000103BA1FB03515F2B0F4BC1F3021103EAE5
:1058F0000203615C88BF0433C1658365184630BC10
:10590000704722F0FF038365F8E700BF10000240F4
:10591000400002402800024058000240B804024003
:10592000ABAAAAAA202C010800FCFFFF0368294AA1
:10593000294930B4294D2A4CAB4218BF93420CBFC1
:10594000012200228B4208BF42F001022831A3420B
:1059500008BF42F0010228348B4208BF42F0010226
:105960002831A34208BF42F001028B4208BF42F037
:10597000010212B91B4A934213D1DBB21A4C1B4AE3
:105980000121083B1A4DA4FB0343456602EB1312A9
:10599000C3F30413920001FA03F30266836630BC7A
:1059A0007047DAB21349144C1944103AA829A4FBE1
:1059B00002234FEA131300D80833104A03F01F05DF
:1059C00001210F4C1A44A940446692008166026688
:1059D000E5E700BF08540258305402581C540258DE
:1059E0004454025894540258CDCCCCCC00960016A6
:1059F00080580258F0FBFDBFABAAAAAA0082001093
:105A00008008024070B50446FEF790FE002C00F0BE
:105A1000C68023680546954A934248D0183293427F
:105A200045D0303292498B4218BF934201F1300188
:105A30000CBF012200228B4208BF42F00102183144
:105A40008B4208BF42F0010218318B4208BF42F07E
:105A5000010218318B4208BF42F0010201F5567174
:105A60008B4208BF42F0010218318B4208BF42F05E
:105A7000010218318B4208BF42F0010218318B42FB
:105A800008BF42F0010218318B4208BF42F0010208
:105A900018318B4208BF42F0010218318B4208BF17
:105AA00042F001021AB9734A934240F0F580022293
:105AB000002184F8352084F834101A6822F001029D
:105AC0001A6005E0FEF732FE431B052B40D8236821
:105AD0001A68D107F6D4D4E9022521692A43A069BE
